:10000000FC7F00204D0600003D0600004106000078
:1000100000000000000000000000000000000000E0
:100020000000000000000000000000004506000085
:1000300000000000000000004906000099070000D1
:1000400010B5064C2378002B07D1054B002B02D0AE
:10005000044800E000BF0123237010BD5C000020B5
:10006000000000006C19000008B5084B002B03D0FD
:100070000748084900E000BF07480368002B03D089
:10008000064B002B00D0984708BDC046000000007A
:100090006C190000600000205800002000000000E3
:1000A000154A164B1178002909D115491878097895
:1000B0004118C9B21970802012498002C8611178B4
:1000C0000131C9B211701978F02902D819780929BB
:1000D00009D80B4908784042C0B2087018780978EE
:1000E0004118C9B2197012781B789A4203D1802244
:1000F000044B9202DA617047780000200100002072
:10010000000000200044004110B5C3699C07FCD4E6
:1001100003680224A3430360C46901231C42FBD18A
:100120000468234303600368DC07FCD4C46901232B
:100130001C42FBD1C469DC401C42F7D1084B1A4376
:100140000260C3695A07FCD4C0239B0243608181CB
:10015000C3699C07FCD4036802221343036010BDEB
:1001600004000040037EDA07FCD5018570470000DB
:10017000027E01235107FBD5428B1A4207D1428BE5
:10018000DA401A4203D1428B92081A4202D0034B42
:1001900001221A70008DC0B27047C046790000205D
:1001A00070B50368041C988B1A1C0821FF320842A2
:1001B00028D0988B174D0143802099839872112382
:1001C00053704021144B917150715E68C0202E40D5
:1001D000800506435E605E693540284358610F48DC
:1001E00018600F4818615D680E4828408025AD02F0
:1001F000284358605868800B800358600023517171
:10020000237105E0137ADA0602D5201C00F0FEFA0D
:10021000207970BDFFFFFF8F98010020980000201B
:1002200018010020FF3F00F0002303714371044BCD
:10023000016083600B78022213430B707047C04645
:10024000A101000038B5364B2021DA6901200A43AC
:10025000DA61344B06241A7802431A70324B0F22AB
:100260001978914319701978214319702F490C7826
:100270002043087019780A401A701A7860210A43DE
:100280001A702B4B2B4A5A805A7852B2002AFBDB49
:10029000294B01211A780A431A709A78D107FCD4A5
:1002A00026480268510B1F221140914200D10521BE
:1002B00011408C011D8D2249294021431985046874
:1002C000A10C0A401F2A00D11D221C8D1F210A40AB
:1002D0008C4322431A8502680721D20D0A408A42C4
:1002E00000D103220A40188D1103164A02400A4326
:1002F0001A8519787F220A401A701A780421124848
:100300000A431A7058621A890C218A431A811A8981
:1003100001218A431A810021802201F0A6F938BD0B
:1003200000040040584400413C440041594400410D
:10033000000C004006400000005000412460800096
:100340003FF8FFFFFF8FFFFF98010020F7B5141C57
:10035000234A5F0101971D1CD319061C5869271CED
:100360004000400F03301033C74006D00F1C8022DE
:10037000596812060A435A6009E02F1C7B1E9F41F0
:10038000184BBF01FF18381C221C01F065F90199B8
:100390001348083542181761131C5269A104920BC7
:1003A000890C92030A435A6159690F4A02200A4094
:1003B0005A616B01F318D979032211400143D879AE
:1003C0009043021C0A43DA715979802252420A434F
:1003D0005A716B01F318DB799A07FAD5201CFEBD20
:1003E0009801002018010020FF3F00F0F8B51E4ED4
:1003F000041C3378151C002B12D11C4B1C4A1A64A8
:100400005A6C920B92035A64586C1A4A02405A640E
:10041000A2235B00E25C40200243E25401233370DC
:100420004827FF37E25D012313401AD00F4B5A6C67
:100430009204920CAA4202D25D6CAD04AD0C081C71
:100440002A1C0B4901F008F9E25D03231A4001213F
:100450000A43E15D99430B1C1343E35500233370BA
:1004600000E01D1C281CF8BD7A0000209801002027
:10047000D8000020FF3F00F0FF30827930239A43FC
:10048000131C2022002900D11022134383717047CE
:100490000C4BFF305A690221920B92035A61027A87
:1004A00003231A400A43017A99430B1C1343037236
:1004B000827980235B4213438371037A9A07FCD5C8
:1004C0007047C0469801002080235B421943C9B29F
:1004D0008172704770B5A02303225B00C254134B96
:1004E000134A5C6CC021144089050C4346255C64AA
:1004F000FF35402444550F4D30261D6490256D0076
:1005000046555D6B15402943922559636D00802146
:100510004155094D1D63B0256D0044555C6F224067
:100520005A67B2235B00C15470BDC04698010020D9
:10053000FFFFFF8FD80000205801002030B5364A59
:100540001E235168082099430223194351603349FF
:100550008A6902438A613248324A9082908A034310
:100560009382D3689807FCD52F4B01201870187818
:10057000C40704D52C48407840B20028F7DB01209E
:100580009860587840B20028FBDB284C264844602D
:10059000587840B20028FBDB82242348E4014480E1
:1005A000587840B20028FBDB908C8024A0439084D4
:1005B000D068C506FCD51E4C1A48C462D4681948D8
:1005C000E506FBD5848C1B4D2C438484D4681548E8
:1005D000E506FBD5848C02252C438484D068040670
:1005E000FCD51048C0684506F8D5D068C406FCD5CF
:1005F00000229A605A7852B2002AFBDB0E480A4A5F
:1006000050605A7852B2002AFBDB00230B724B7207
:100610008B72CB7230BDC0460040004100040040E8
:100620000C06000000080040000C0040010501001D
:10063000B805FF7D040A0000000703000EBEFEE7B8
:100640000DBEFEE705BEFEE702BEFEE70E4A0F48FE
:1006500038B5824204D10E4A0E4B93420ED10AE0C5
:100660000D4C9442F7D00023D1188842F3D9E558B5
:1006700004330D60F8E700F011F804E09342FAD279
:10068000002102C3FAE7FEE7000000205C00002022
:10069000A40300205C0000207019000010B5324B4C
:1006A0000022197801231940304B0AD11868304ACA
:1006B000904201D1196014E01A602E4A013A002AD2
:1006C000FCD11A602C4B1968181C4A1C09D0FF2257
:1006D000134206D181F308889343284A9360436804
:1006E0001847FFF72BFF62B600F0E4FD00F05AF860
:1006F000234B8022920223499A6008220A602249F1
:10070000041C0A60802212059A609A611F4B204ADD
:10071000C0215A60194A0906106A0002000A014302
:10072000116200229A6007221A60A368201C984771
:10073000184B002801D001221A701A78002A05D01F
:10074000002000F0ABFA00F031FBFCE71B78002B37
:10075000EBD100F023FE0028E7D0012000F09EFA44
:1007600000F024FBFCE7C04638040040FC7F00207A
:100770003581730748E801000020000000ED00E02B
:1007800000440041884400419844004110E000E0EA
:10079000E70300007B00002008B5FFF781FC00F0B4
:1007A000E1FA08BD10B5054B054C2360FFF74AFD83
:1007B000201C2168FFF738FD201C10BD00500041AF
:1007C0001802002070B5051CC0B0081C161C0C1CBB
:1007D00000F053FF40006A4603230230537010704C
:1007E00076080123E218013A11785A00002906D14F
:1007F000281C69460023FFF7A9FD40B070BDB34235
:10080000F6DA684681520133ECE70000F7B5046878
:10081000051C201CFF30037AAF4A10210B430372E2
:10082000AE4F1378AE493B705378AE4E0B70937851
:100830003380D178338809020B4333801179AA4B76
:10084000198051791F8809020F431F809779A749A2
:100850000F80D2790F8812023A430A8040224271F7
:100860009F489E4F0278387812020243A0480F1C1E
:100870008446181C624500D1C2E020DC802149007A
:100880008A4200D185E109DC812A00D192E0822AE6
:1008900000D195E0802A00D07BE18BE081235B00D2
:1008A0009A4200D1D5E000DA6FE1C0239B009A4262
:1008B00000D16EE18F4B9A4200D166E169E190234D
:1008C0001B019A4269D015DCD023DB009A4222D06A
:1008D00088231B019A4269D0A023DB009A4200D0F2
:1008E00057E1201CFFF7D4FD3188286889B2FFF753
:1008F000EBFD52E1804B9A4200D146E100DC48E139
:100900007E4B9A4200D134E17D4B9A4200D040E1C7
:1009100033886B7139E133881B0A012B08D10B88AE
:1009200012222868934201D80A8892B2754928E1B8
:1009300033881B0A022B08D10B8843222868934274
:1009400001D80A8892B270491BE133881B0A032B35
:1009500000D01EE13388DBB2012B17D0002B07D06B
:10096000022B00D015E10A882868D2B2674911E04D
:10097000042201A8664900F06FFE3B880422286823
:10098000934201D83A8892B201A9FAE00A8828680D
:100990006049D2B2FFF716FFFFE03388201C2B71AD
:1009A000FFF776FD201CFFF795FDF6E0291C01C935
:1009B0000122E6E0584900230B8028680222E1E08A
:1009C000554900220A80188850221040534A10705E
:1009D0001E880F20304018801888032800D9D8E0DE
:1009E00012781B8808335B01E418A379002A01D030
:1009F0009B0600E0DB06DB0F0B8028680222C0E0CC
:100A000019887F229143454AC9B2117018880F2175
:100A1000014019803188002900D0BAE019880029E6
:100A200000D1B6E01988032900D9B2E012781B88FA
:100A300008335B01E318002A04D05A7930218A4335
:100A4000202103E05A7930218A4310210A435A7148
:100A50009BE002887F239A43304BD2B21A70018800
:100A60000F220A4002803288002A00D091E00288DA
:100A7000002A00D18DE00288032A00D989E01B7882
:100A8000002B4DD0038808335B01E3189B799A064D
:100A900000D47AE00388302108335B01E3181A7927
:100AA0008A4320210A431A71038808335B01E31843
:100AB000DB795F0669D50388602108335B01E318A1
:100AC000DA798A4340210A43DA7103880222083323
:100AD0005B01E3184BE0C046980000208600002030
:100AE0007E00002080000020820000208400002082
:100AF000020300000103000021200000A1210000EA
:100B000021220000C016000004000020B0160000E2
:100B1000A0160000A41600007C0000208700002022
:100B2000038808335B01E3189B79D9062DD5038828
:100B3000302108335B01E3181A798A4310210A43F4
:100B40001A71038808335B01E318DB799A061CD518
:100B50000388602108335B01E318DA798A43202196
:100B60000A43DA710388012208335B01E3181A7122
:100B70000BE00B8808222868934201D80A8892B2B9
:100B800006490023FFF7E2FB07E0201CFFF780FC8B
:100B900003E0201C0121FFF76FFCF7BD4800002097
:100BA00007B5054B0122019001A91868131CFFF736
:100BB000CDFB01200EBDC0461802002013B5054B29
:100BC0006C4607341868211C0122FFF70FFC2078BF
:100BD00016BDC0461802002010B5074C201CFFF7B8
:100BE000DFFA031C0020834205D022684823FF332C
:100BF000D05C0123184010BD1802002010B5054A32
:100C00000C1C031C191C10680123221CFFF79EFBFF
:100C1000201C10BD1802002070B5084C061C201CBA
:100C20000D1CFFF7BDFA0023984205D02068311C47
:100C30002A1CFFF7DBFB031C181C70BD18020020E8
:100C4000F8B50C4C051C201C0E1CFFF7A9FA00235C
:100C5000271C341C98420AD0002C07D0291C221CC7
:100C60003868FFF7C3FB241A2D18F5E7331C181C4E
:100C7000F8BDC0461802002008B5031C081C111C52
:100C80009847044B802212055A61034B64221A8054
:100C900008BDC0460044004192000020012805D153
:100CA000054B064A1A60064B187004E0002802D172
:100CB000044A014B1A60704788020020F4160000B5
:100CC000940000204017000030B50A1C1C4985B074
:100CD0000978031C00292AD0042A01D1006804E005
:100CE000022A01D1008800E00078520004A98B1884
:100CF0000B3B9C1AA3420BD00F210140092902D8BB
:100D00003025294300E0373119700009013BF1E734
:100D100001A930230B7078234B700A208B18987030
:100D20000D20D870074B04321B68D86803E00549D2
:100D30000968C868191CFFF79FFF05B030BDC046A1
:100D4000880000208802002072B6EFF30883044A6E
:100D50001360036883F30888436818477047C046E8
:100D60008C0200200D4B1A88002A09D01A88013AFB
:100D700092B21A80002A03D18022094B12059A618F
:100D8000084B1A88002A08D01A88013A92B21A80B1
:100D9000002A02D1044B08221A60704792000020FA
:100DA000004400419000002098440041F0B591B00B
:100DB00008A9CE4A0B1C31CA31C351CA51C360CAFB
:100DC00060C3CB4BCB489A687A255203520F9200EE
:100DD0005258C94902609C68A4B262430C60C7497A
:100DE00000240A60C64A1460C64C2570C64CC74D24
:100DF0002368281C1B6940219847002805D0C44B54
:100E000008221A60C34B64221A80C34B0022186068
:100E1000C24B1D60C24BC24DBF4F1A602A683B686F
:100E20009A42E3D2BD4B1B681A78FF2A00D120E218
:100E3000232A00D0F7E1BB4E3378002B06D0B24B0B
:100E4000B9491B680222D868FFF716FFAD4B1B7823
:100E5000532B3FD13B682A6893421ED9AF480132D9
:100E60002A609A1AB14B01681B6801310160B04ECB
:100E70009A4201D2326000E03360A14832680068D3
:100E8000049000F0E9FB336829685A182A60A34AE5
:100E90001668F1181160A74A13702B68013B2B608C
:100EA0009E4B1A68013A1A60A24BA04A1B7811683F
:100EB0008B420DD222689248C91A00689269904705
:100EC000002805D0924B08221A60924B64221A80A7
:100ED000C04696E1522B0ED18948944A2368006897
:100EE00011685B6903909847934B802212055A6101
:100EF0006422924B0DE04F2B05D1814B8B4A1B682E
:100F000012681A707DE1482B05D17D4B874A1B681A
:100F100012681A8075E1572B05D1794B834A1B68FB
:100F200012681A606DE16F2B03D1754B01211868AF
:100F300007E0682B08D1724B7C481B6802211B8894
:100F40000360FFF7C1FE5CE1772B06D16C4B77485D
:100F50001B6804211B680360F3E7472B13D1734B15
:100F60001868FFF7F1FE764B1B6883F3088862B6BA
:100F7000744B1B78002B00D143E1634B06201B68A8
:100F80001B6898473DE1542B04D1012333705E4B1D
:100F90001B6864E04E2B0CD13378002B06D15A4BE2
:100FA00061491B680222D868FFF766FE0023337090
:100FB00027E1562B57D123686349D8680122FFF7F0
:100FC0005BFE23686149D8680322FFF755FE604D38
:100FD0002368291CD8680122FFF74EFE23685D496B
:100FE000D8680D22FFF748FE2368291CD868012223
:100FF000FFF742FE494F4A4D5749002339602B60A5
:101000003A1C281C13685E1C16601B780593002B85
:1010100003D0036801330360F4E73B4E2A6833686A
:10102000D868FFF729FE33684949D8680122FFF7DD
:1010300023FE0599296049493960384A1368581CCC
:1010400010601B78002B04D0354B1A6801321A60EF
:10105000F3E733682A68D868FFF70EFE3368D8686C
:1010600031490222CBE0314A582B17D1214E234D72
:10107000366813682A68B10093420AD21C4D58089A
:10108000E861374828801A4D287DC607FBD55B18D4
:10109000F2E71D4B33491B68D868AFE0592B00D0ED
:1010A0007DE01268164B3049002A02D11B680B60A4
:1010B00070E00F4D086819686B680D4E8025AB43D2
:1010C00092087360002A65D0284B094D2B80084E8A
:1010D000337DDD07FBD50023064D2D680195AD0856
:1010E000AB4247D3224D024E35804AE0D416000071
:1010F000004000414002002038020020340200205D
:1011000084020020300200208802002044020020D7
:101110009444004190000020280200202C0200206E
:101120003C020020880000203417000090020020BC
:10113000940200202402002000440041920000207C
:101140008C020020940000201017000039170000C6
:10115000121700005C170000141700002017000091
:1011600002A5FFFF291700008C00002044A5FFFF07
:1011700004A5FFFF9342B5D09D00465901334E515F
:10118000AAE7404E357DEE07FBD59D004919401971
:10119000D21A97E73C4B3D491B68D8682EE05A2B82
:1011A0002FD13B4B17681D680026EF19BD4206D0B2
:1011B0002878311C00F014F90135061CF6E7324B93
:1011C00034491B680122D868FFF756FD07230F2218
:1011D0003240111C36093031092A00DD0731182050
:1011E000C0186A468154013BF1D2236806A9D86829
:1011F0000822FFF741FD23682749D8680322FFF73B
:101200003BFD264B7A221A70254B00221A60254B93
:101210001B7893422DD01C4B23491B680122D868B0
:10122000FFF72AFD25E0111C3039C8B21C4B0928F4
:1012300004D81D682A01114319601AE0111C4139B4
:10124000052903D81E68373A310106E0111C6139BF
:10125000052904D81868573A01010A4308E02C2AE6
:1012600003D10B4A1968116001E00C490A70002291
:101270001A600E4B1A6801321A600D4B1A6801325F
:10128000C9E5C04600400041880200202D1700003B
:1012900084020020311700003317000030020020C4
:1012A0009002002088000020371700003C02002038
:1012B0002C02002010B51C4B01201A780224024396
:1012C0001A701A4B0F22197891431970197821431B
:1012D000197017490C782043087019780A401A7061
:1012E0001A7820210A431A70124B04211A6A0A4301
:1012F0001A62114B114A5A805A7852B2002AFBDB0B
:10130000C4220F480F499203FEF7FEFE0E4A002347
:1013100013700E4A13700E4A13700E4A13700E4A61
:1013200013700E4A137010BD4A4400413544004109
:101330004B44004100040040000C004014400000F9
:10134000000800422AF60000980200201F03002037
:10135000990200209C020020200300201D03002091
:1013600008B5C1B20248FEF7FDFE012008BDC04627
:1013700000080042024B187E4007C00F7047C0466D
:101380000008004208B5FFF7F5FF0028FBD002482F
:10139000FEF7EEFE08BDC0460008004208B5FFF7A4
:1013A000E9FF0023984205D0FFF7ECFF031C233B25
:1013B0005A425341181C08BD70B5041C0D1C461838
:1013C000B44204D02078FFF7CBFF0134F8E7281CA3
:1013D00070BD10B5041CFFF7D5FF2070012010BDB3
:1013E0000B0A5840034B4000C05A0902484080B2E3
:1013F0007047C0466A170000F7B50024051C0F1C93
:10140000261CBC4220D0FFF7BDFF114BC0B21B7899
:101410000190002B1AD1311CFFF7E2FF0D4B061C87
:101420001A88002A04D10C4A11782A1C002907D0F6
:1014300001996A1C2970802F02D1198801391980FD
:101440000134A4B2151CDCE7301C00E00120FEBD15
:101450001D0300209A0200201E030020F0B53E4E1E
:1014600085B0002203900C1C32703C4B914201D19C
:10147000012201E03A490C801A707F231C4201D0FE
:1014800080349C43FFF77EFF3378C0B2002B07D037
:1014900000253570FFF776FF3378C0B2AB4236D106
:1014A000432803D0712853D01528EBD10123009392
:1014B0000120FFF755FF0098FFF752FF00998025A4
:1014C000C843C0B2FFF74CFF039B00270293244A96
:1014D0001388002B1DD1214901930978002918D1C7
:1014E0000198FFF73DFF391C0198FFF779FF013D97
:1014F000071C002DEBD1000AC0B2FFF731FFF8B294
:10150000FFF72EFFFFF73EFF3378002B0AD0357030
:101510001FE00299013B09781380029B019101337E
:101520000293DDE7C0B2062807D1009B039901337F
:10153000DBB280310093803C0391002CB8D10420B1
:10154000FFF70EFFFFF71EFF044B01251C7000E0A4
:101550000025281C05B0F0BD1D0300201E0300203F
:101560009A020020F0B5384C87B000230190237018
:10157000994201D1012301E0344A1180344A6426A2
:1015800013704320FFF7ECFE324FFFF7F3FE002805
:1015900003D1002F03D0013FF7E7002F03D1013E15
:1015A000002EEED14DE00125FFF7ECFE2378002B55
:1015B00038D1C0B20290012805D004283DD10620C0
:1015C000FFF7CEFE39E005AE0221301CFFF714FF15
:1015D00001988021FFF710FF23780390002B18D18A
:1015E000FFF7D0FE0702FFF7CDFEBFB223783F180A
:1015F000BFB2012B0DD0039B9F4207D13378AB4282
:1016000004D1EB437278DBB29A4204D01820FFF782
:10161000A7FE002303E00620FFF7A2FE029B22782C
:10162000002A02D0002626700BE0012B05D1019A7A
:101630006B1C8032DDB20192B6E7054A00231370BD
:101640000126301C07B0F0BD1D0300209A020020C7
:101650001E03002000350C0010B50023934203D078
:10166000CC5CC4540133F9E710BD031C82189342CB
:1016700002D019700133FAE770470023C25C0133CE
:10168000002AFBD1581E7047F8B5C046F8BC08BC0C
:101690009E467047F8B5C046F8BC08BC9E467047E9
:1016A0000403090441726475696E6F204C4C430059
:1016B000537061726B46756E2053414D4432310058
:1016C00012010002020000404F1B218D00020102A6
:1016D00000010000080000001000000020000000D1
:1016E0004000000080000000000100000002000037
:1016F0000004000061130000851300007513000052
:10170000B9130000D31300005D140000651500003C
:10171000760020004E6F7620313420323031360092
:1017200031333A31323A303300580A0D00590A0D3C
:10173000005A00230A0D003E00322E300000000047
:10174000A10B0000BD0B0000D90B0000FD0B000039
:10175000190C0000FD0B0000410C00005B4172649D
:1017600075696E6F3A58595A5D0000002110422089
:1017700063308440A550C660E770088129914AA172
:101780006BB18CC1ADD1CEE1EFF1311210027332E9
:101790005222B5529442F772D662399318837BB3C2
:1017A0005AA3BDD39CC3FFF3DEE362244334200479
:1017B0000114E664C774A44485546AA54BB5288512
:1017C0000995EEE5CFF5ACC58DD5533672261116C9
:1017D0003006D776F6669556B4465BB77AA7199762
:1017E0003887DFF7FEE79DD7BCC7C448E558866851
:1017F000A7784008611802282338CCC9EDD98EE9B2
:10180000AFF9488969990AA92BB9F55AD44AB77A28
:10181000966A711A500A333A122AFDDBDCCBBFFB01
:101820009EEB799B588B3BBB1AABA66C877CE44C38
:10183000C55C222C033C600C411CAEED8FFDECCD51
:10184000CDDD2AAD0BBD688D499D977EB66ED55E08
:10185000F44E133E322E511E700E9FFFBEEFDDDFA1
:10186000FCCF1BBF3AAF599F788F8891A981CAB12D
:10187000EBA10CD12DC14EF16FE18010A100C2305F
:10188000E3200450254046706760B9839893FBA31A
:10189000DAB33DC31CD37FE35EF3B1029012F322AF
:1018A000D2323542145277625672EAB5CBA5A8956A
:1018B00089856EF54FE52CD50DC5E234C324A014FF
:1018C00081046674476424540544DBA7FAB79987FA
:1018D000B8975FE77EF71DC73CD7D326F23691064F
:1018E000B01657667676154634564CD96DC90EF942
:1018F0002FE9C899E9898AB9ABA94458654806789F
:101900002768C018E1088238A3287DCB5CDB3FEB59
:101910001EFBF98BD89BBBAB9ABB754A545A376AEE
:10192000167AF10AD01AB32A923A2EFD0FED6CDD29
:101930004DCDAABD8BADE89DC98D267C076C645C3E
:10194000454CA23C832CE01CC10C1FEF3EFF5DCF39
:101950007CDF9BAFBABFD98FF89F176E367E554E8E
:10196000745E932EB23ED10EF01E00000000000007
:101970000114000009024300020100803209040042
:1019800000010202000005240010010424020005E9
:10199000240600010524010001070583030800FF58
:1019A00009040100020A000000070581024000004E
:1019B000070502024000000000C20100000008000C
:1019C000690000004100000000000000FFFFFFFF71
:1019D000FFFFFFFFFFFFFFFFFFFFFFFFFFFFFFFF17
:1019E000FFFFFFFFFFFFFFFFFFFFFFFFFFFFFFFF07
:1019F000FFFFFFFFFFFFFFFFFFFFFFFFFFFFFFFFF7
:101A0000FFFFFFFFFFFFFFFFFFFFFFFFFFFFFFFFE6
:102000000080002019600000E15F00000360000014
:1020100000000000000000000000000000000000C0
:10202000000000000000000000000000036000004D
:102030000000000000000000036000006D60000070
:102040000360000003600000036000000360000004
:10205000A95F000003600000A140000005600000CF
:1020600003600000036000000360000003600000E4
:1020700003600000154400000360000003600000DE
:1020800003600000036000000360000003600000C4
:102090000000000003600000036000000360000017
:1020A00003600000036000000360000003600000A4
:1020B0000000000010B5064C2378002B07D1054B1B
:1020C000002B02D0044800E000BF0123237010BDA4
:1020D00088020020000000000CDA0000044B10B55C
:1020E000002B03D00349044800E000BF10BDC046E8
:1020F000000000008C0200200CDA000070477047DE
:10210000704770477047704700487047FDD0000027
:1021100030B585B06B46009119005A6002AA30C9EB
:1021200030C29A88002A04D002680299546B5A6817
:10213000A04705B030BD1FB501AA1180CBB203AADC
:102140001180F72B03D9036803999B6B98471FBD38
:1021500070477047704770477047043070470530CC
:1021600070470430704707307047043070470630BE
:102170007047000010B50400054B0360054B8360F9
:10218000054B0361054BC36101F020FA200010BD2F
:10219000D4CF000020D000003CD0000054D000007C
:1021A00008B4024B9C46103808BC604775210000FB
:1021B00008B4024B9C46083808BC604775210000F3
:1021C00008B4024B9C461C3808BC604775210000CF
:1021D00010B50400054B0360054B8360054B03619C
:1021E000054BC361FFF7C6FF200010BD6CD0000097
:1021F000B8D00000D4D00000ECD0000008B4024BEE
:102200009C46083808BC6047D121000008B4024B46
:102210009C46103808BC6047D121000008B4024B2E
:102220009C461C3808BC6047D121000010B5040052
:10223000FFF7A0FF2000F82104F0CDFA200010BD28
:1022400008B4024B9C461C3808BC60472D22000095
:1022500008B4024B9C46103808BC60472D22000091
:1022600008B4024B9C46083808BC60472D22000089
:1022700010B50400FFF7ACFF2000F82104F0ABFA22
:10228000200010BD08B4024B9C46083808BC6047CB
:102290007122000008B4024B9C46103808BC60470D
:1022A0007122000008B4024B9C461C3808BC6047F1
:1022B0007122000010B50400082104F08CFA2000FF
:1022C00010BD10B50400082104F085FA200010BDEF
:1022D00010B50400082104F07EFA200010BD7FB57F
:1022E00001910391C9B207230D0001AC03AA9D43DC
:1022F000F02D0CD1F0290AD07F260168A3780D6B50
:10230000617833403140517093700399A8477FBD85
:1023100073B5050001F0E3FD041E14D10B4801F074
:10232000EFFF6E46010A020CC3B2000E33707170EB
:10233000B270F070002B06D00099280001F03CFD2F
:102340000028EBD00400200076BDC04688050020A0
:1023500037B5000706AC2578000E01AC0143E570E7
:1023600021706270A3700199014802F01BF837BD1B
:102370008805002013B50400101C022910D0032981
:1023800006D001290BD1002322780093052104E017
:10239000A1786378009107212278FFF7D9FF13BD58
:1023A00000216378009122780631F6E713B50C1C02
:1023B0008178437802780091201C0421FFF7C8FF40
:1023C00013BD00000E4A0F4B10B51468036041683E
:1023D0008368A04204D0002902D1002B02D110BD95
:1023E000002B00D059605168884200D15360416889
:1023F000002900D08B60A042F1D11160EFE7C04608
:10240000A40200207CCF000010B50400FFF7DAFF23
:1024100020000C2104F0DFF9200010BD10B50248A7
:1024200001F0A6FF10BDC0468805002010B586B09B
:1024300003AB198004000023081C0004CAB20093F7
:102440000F21000EF634FFF783FF2378002B02D014
:10245000024801F08DFF06B010BDC046880500207F
:1024600030B5050008000C0C87B00B0ACAB2E4B204
:102470000391DBB211090094000EF635FFF768FFF7
:102480002B78002B02D0024801F072FF07B030BD5C
:102490008805002030B50B0A87B00D0CCAB20400C5
:1024A0000391DBB2EDB2080EF22A0CD103210095A4
:1024B000F634FFF74DFF2378002B02D0064801F0D9
:1024C00057FF07B030BD00210091F32A02D90B005D
:1024D0000531EDE70221EBE78805002030B50C005F
:1024E000E3B2803B85B0DBB2019101AA03A903945A
:1024F0006F2B0AD87F25937852782B4004682A40A6
:102500004A708B70E46A0399A04705B030BD0000A3
:102510000023294A70B50260284A436082600200A5
:10252000C36043618361264B04000361254B103275
:102530001968002900D11A605968A161002900D0EA
:102540004A605A60230000251F4A263312786561CD
:102550002562DA70220020000F212A321D705D7082
:102560009D702B30157002788A4302709A7903307F
:102570008A439A712900842206F03EF92300200044
:10258000AE331D809D7029000422B23006F034F96C
:10259000200029001022E63006F02EF92300012247
:1025A000F6331A70094B20002360094BA360094BD6
:1025B0002361094BE36170BD34CF000060CF0000A0
:1025C0007CCF0000A4020020FCD000006CD00000F2
:1025D000B8D00000D4D00000ECD0000010B502212B
:1025E000002003F089FF0221012003F085FF022172
:1025F000080003F081FF0221032003F07DFF022188
:10260000042003F079FF0221052003F075FF01216A
:10261000062003F071FF0121072003F06DFF012167
:10262000082003F069FF0121092003F065FF012163
:102630000A2003F061FF0121062003F08DFF012134
:10264000072003F089FF0121082003F085FF012105
:10265000092003F081FF01210A2003F07DFF0449D6
:10266000044802F083F9044B186800F0AFFD10BD78
:1026700040041100FC0800208C040020F0B585B057
:1026800001AC2180C9B2CB0712D503684908DD6AC5
:10269000802603AB59707F216478764227073F0F6D
:1026A0000A4024093E431E709A70DC700399A847C3
:1026B00005B0F0BD73B50C00150003F079FF237869
:1026C00000281FD1002B1CD100237F22174E184950
:1026D000F35609785B191340114001AA5370002387
:1026E0009030D3701070917001991248FFF7B8FEC6
:1026F000002171560A2249190F4801F04CFF0123AD
:10270000237073BD002BFCD00021084B01AA595641
:102710000123491900254900194311705570019989
:102720002A000448FFF7AAFF2570EAE72C040020DE
:102730000400002034030020FC08002073B50024AE
:1027400001267F250022630001A933430B704A70E4
:10275000019904480134FFF791FF2C407F2CF1D1FF
:1027600073BDC04634030020F0B585B001AC2180B4
:10277000C9B2CB0712D503684908DD6A502603ABFE
:1027800059707F216478764227073F0F0A40240959
:102790003E431E709A70DC700399A84705B0F0BDE7
:1027A000F0B50400481E8FB004280ED804F018F8C5
:1027B000030F420F37002100042226310CA805F038
:1027C000FFFF0C99200000F029FF0FB0F0BD26009C
:1027D000842523002C36307826330007000F684309
:1027E00008301818019301F071FA07003078019B46
:1027F0000007000F68430830181801F068FA0CAAA7
:1028000090800F2093793178834301400B430C97DC
:10281000937139000D9A200000F00FFFD5E72100D9
:10282000042226310CA805F0CBFF0C99200000F003
:1028300015FFCAE7210004AD2A310222280005F065
:10284000BFFF2A8803AB1A800399200000F015FF10
:10285000BBE70300F7B52633050018000193FFF727
:1028600057FD041E24D02F000837380001F024F84B
:102870002E1E00D01C36B04203D13100380001F0CA
:1028800012F80023009321002800FFF789FF042C91
:102890000FD00023022C0DD00198FFF739FD041E44
:1028A000F1D1009B002B03D03100380000F0F2FF83
:1028B000F7BD01230093EFE710B5FFF7CAFF10BD86
:1028C00008B4024B9C46103808BC6047B928000089
:1028D000F7B5AC4C2000FFF7BCFF0021062003F049
:1028E0003BFE012003F006FC3022A7490020FFF741
:1028F000E1FE3522A5490120FFF7DCFE3A22A4497A
:102900000220FFF7D7FE3F22A2490320FFF7D2FEA5
:102910004422A1490420FFF7CDFE052003F048FE24
:102920009E4E9F4D002800D0FAE03378002B0CD14A
:1029300001222B7000239B4F3270FB56233304DBA4
:10294000FFF7FCFE3B780C3B3B700121062003F0B7
:1029500003FE0021072003F0FFFD012003F0CAFB66
:10296000312291490020FFF7A5FE36228F49012030
:10297000FFF7A0FE3B228E490220FFF79BFE40227C
:102980008C490320FFF796FE042045228A49FFF771
:1029900091FE052003F00CFE002800D0C3E02B7848
:1029A000002B0CD1337001332B7000237D4DEB567F
:1029B000232B04DCFFF7C2FE2B780C332B70012194
:1029C000072003F0C9FD0021082003F0C5FD012008
:1029D00003F090FB322279490020FFF76BFE37228B
:1029E00077490120FFF766FE3C2276490220FFF777
:1029F00061FE412274490320FFF75CFE46227349C1
:102A00000420FFF757FE052003F0D2FD704D00288B
:102A100000D08AE02B78002B0CD17F2201AB5242F0
:102A20001A7000225A7001997F322000FFF79CFE35
:102A300001232B700121082003F08EFD00210920C5
:102A400003F08AFD012003F055FB33226149002089
:102A5000FFF730FE382260490120FFF72BFE3D22B0
:102A60005E490220FFF726FE42225D490320FFF760
:102A700021FE47225B490420FFF71CFE052003F0DE
:102A800097FD594D002862D12B78002B0BD10322E2
:102A900001AB1A7000225A7001997F322000FFF7B3
:102AA00063FE01232B700121092003F055FD002155
:102AB0000A2003F051FD012003F01CFB34224B4996
:102AC0000020FFF7F7FD392249490120FFF7F2FD09
:102AD0003E2248490220FFF7EDFD432246490320EC
:102AE000FFF7E8FD482245490420FFF7E3FD0520F4
:102AF00003F05EFD424B1A7800283ED1002A07D130
:102B000001321A703F4B1A787F2A30D14D3A1A7031
:102B100001210A2003F020FD012003F0EBFAF7BDAC
:102B20000023337011E7002348E72978012900D0FA
:102B300080E780235B4201AA0B431370002353708C
:102B400001991A002000FFF70FFE002371E7297892
:102B50000129A8D1022301AA0B431370002353704B
:102B600001991A002000FFF7FFFD00239AE7322A9F
:102B700001D12832CBE77F22C9E7012AC8D1002240
:102B8000C5E7C046340300201A03002025030020B7
:102B900016030020220300202C0300202E03002017
:102BA0002F0300202C0400201D03002027030020F9
:102BB0001803002024030020150300201F03002019
:102BC000290300201B0300202603002017030020F8
:102BD00030030020210300202B0300201E030020CF
:102BE00028030020190300202D03002023030020C8
:102BF00014030020200300202A0300201C030020CF
:102C00003103002004000020F0B593B289B0069192
:102C100007920193002B39D006AB9F790B783D07C3
:102C20002D0F0291F02B03D10022431930331A707B
:102C300003216943029B4219039242189C461300E8
:102C4000019C0591039A6646303204921278022A5A
:102C500048D8511C049EC9B2317066463678013C92
:102C60009E540122A4B29444002CEBD1019A029B01
:102C700094466344013B1B78F72B09D1059B89B22D
:102C8000C0183A1CFFF776FB049B1C7009B0F0BD1E
:102C90000329FBD14D43391C4019FFF787FBF3E7AC
:102CA000019A029B94466344013B1B78F72B06D0A4
:102CB000032C0ED1391C3000FFF778FB04E03A1CDE
:102CC00021003000FFF756FB0022039B30331A70BF
:102CD000DCE7039B220030331C703100280005F034
:102CE0006FFDD3E703214D434519391C2800FFF739
:102CF0005DFB6B461F74032CD2D96B463000197CE8
:102D0000033CFFF753FB0336A4B2F4E71FB50400FE
:102D1000039003ABB630F634FFF776FF2378002B31
:102D200002D0024801F024FB1FBDC04688050020E8
:102D300070B5050004000835280000F0D5FE211EFE
:102D400000D01C31280000F0AEFD03F09DF9060014
:102D500003F09AF9F423FF33801B98420CD820002B
:102D60002630FFF7D5FA050001002000FFF718FD17
:102D7000042DEAD0022DEBD170BD000010B5FFF795
:102D8000D7FF10BD08B4024B9C461C3808BC6047F6
:102D90007D2D0000F8B53F483F4C404D404F414E1F
:102DA000220029008780066003F00EFD3E483F4B5D
:102DB000220029008380066003F006FD3C483D4B5D
:102DC000220029008380066003F0FEFC3A483B4B5A
:102DD000220029008380066003F0F6FC3848394B56
:102DE000220029008380066003F0EEFC3648374B52
:102DF000220029008380066003F0E6FC3448354B4E
:102E0000220029008380066003F0DEFC3248334B49
:102E1000220029008380066003F0D6FC3048314B45
:102E2000878003600A23304F22003900837103F04A
:102E3000CBFC2E481A4B2B4A83800B2339000260AF
:102E40008371220003F0C0FC29482A4B2200036052
:102E5000F4232949037103F0B7FC284822000660D7
:102E6000274E2900868003F0AFFC26481D4B390011
:102E70000360DC2322008371868003F0A5FC224DD1
:102E80002800FFF745FB28002200204903F09CFCA6
:102E9000F8BDC046FC0200200000002055210000C3
:102EA000040700008CCF0000D402002004FBFFFFC9
:102EB000E4020020F8FBFFFF0403002003070000EA
:102EC000DC02002003FBFFFFEC020020F7FBFFFF0A
:102ED000C4020020030600000C03002003080000C9
:102EE000F4020020A4CF000053210000CC020020F7
:102EF000B4020020BCCF000051210000AC02002031
:102F0000F4E8FFFFBC02002034030020D1210000C0
:102F100070B501210D2003F0EFFA0D2432250121B7
:102F2000200003F019FB280003F0E4F80021200042
:102F300003F012FB280003F0DDF80121200003F06C
:102F40000BFB280003F0D6F82000002103F004FB5F
:102F5000014803F0CFF8E2E752030000054B10B53B
:102F60001C68002C05D0236820001B6B9847646800
:102F7000F7E710BD3004002007B5036A0191002B6C
:102F800001D00800984707BD07B501AB1980436A17
:102F9000002B01D00198984707BD00007FB56C4613
:102FA000C36900916260002B1FD102AD2B0006CCDB
:102FB00006C3144E3468002C1CD0236829685B6952
:102FC0006A6820009847002819D0A368002B11D008
:102FD0009968626800290ED04C605A609C606360FA
:102FE000A160002A09D0936004E0009861689847C6
:102FF0000028DAD07FBD3460EFE77360FAE76468D9
:10300000D9E7C0464004002010B50400054B03601A
:10301000054B0830036000F0E1FC200000F0C4FC28
:10302000200010BD34CF000060CF000008B4024B78
:103030009C46083808BC604709300000094B10B5B1
:103040001A0004000832343302608360483000F014
:10305000DBFC2000283000F0D7FC2000FFF7D4FF75
:10306000200010BD04D1000008B4024B9C46083873
:1030700008BC60473D30000010B50400FFF7DEFFDC
:103080002000682103F0A7FB200010BD08B4024B0C
:103090009C46083808BC60477930000010B5040031
:1030A000FFF7B2FF2000102103F095FB200010BDB8
:1030B00008B4024B9C46083808BC60479D300000AD
:1030C000F8B50127194E1A4C35683D402BD1194BE4
:1030D00065601A003433A360174B08322361E56042
:1030E0006561226002F0D6FF2369144AC01A144BAE
:1030F0006061A262A264E56265632363A563E56320
:1031000025646564E56465652365A565E5652566F3
:1031100065660C4A0C492000A561E561256265627F
:10312000376003F051FB2000F8BDC0468804002042
:103130009004002004D100001A41000034D20000A5
:103140007CD20000000000203D30000070B5C36854
:103150000400002083421FD118006368002B1BD19C
:1031600000F024FA051E01D1FFF7D2FE2600283612
:103170003100200000F0B0FB28003100083000F0E2
:10318000C1FB200020360830310000F0BBFB2800D6
:10319000310000F0A1FB012070BD00000A4B10B50A
:1031A0001C68002C0ED0E0686468002C02D0E36834
:1031B000984205D003689B699847002C02D0E368C9
:1031C0001800F1E710BDC046F804002070B50500F6
:1031D000FFF7BCFF0C2003F025F9FFF7BFFE3B4BC8
:1031E0001C68002C05D0236820009B689847646801
:1031F000F7E7374B1C68002C05D0236820009B683C
:1032000098476468F7E72800FFF7C8FF314B1C6850
:10321000002C05D0236820009B6898476468F7E776
:103220002D4B1C68002C05D0236820009B68984714
:103230006468F7E7294B1C68002C05D02368200040
:103240009B6898476468F7E7254B1C68002C05D0FD
:10325000236820009B6898476468F7E7214B1C6847
:10326000002C05D0236820009B6898476468F7E726
:103270001D4B1C68002C05D0236820009B689847D4
:103280006468F7E7194B1C68002C05D02368200000
:103290009B6898476468F7E7154B1C68002C05D0BD
:1032A000236820009B6898476468F7E7114B1C6807
:1032B000002C05D0236820009B6898476468F7E7D6
:1032C00002F0E8FE2B69C01A686170BDA4020020FC
:1032D00080040020700400206804002060040020A6
:1032E000580400205004002048040020400400201E
:1032F000780400203804002037B5124D01902C6866
:10330000002C1CD0236801995B6920009847002895
:1033100013D0A368002B0BD099686268002908D0ED
:103320004C605A609C606360A160002A03D0936087
:103330003EBD2C60F5E76B60FAE76468E0E72000CB
:10334000F6E7C0467004002037B5124D01902C6896
:10335000002C1CD0236801995B6920009847002845
:1033600013D0A368002B0BD099686268002908D09D
:103370004C605A609C606360A160002A03D0936037
:103380003EBD2C60F5E76B60FAE76468E0E720007B
:10339000F6E7C0466804002037B5124D01902C684E
:1033A000002C1CD0236801995B69200098470028F5
:1033B00013D0A368002B0BD099686268002908D04D
:1033C0004C605A609C606360A160002A03D09360E7
:1033D0003EBD2C60F5E76B60FAE76468E0E720002B
:1033E000F6E7C0466004002037B5124D01902C6806
:1033F000002C1CD0236801995B69200098470028A5
:1034000013D0A368002B0BD099686268002908D0FC
:103410004C605A609C606360A160002A03D0936096
:103420003EBD2C60F5E76B60FAE76468E0E72000DA
:10343000F6E7C0465804002037B5124D01902C68BD
:10344000002C1CD0236801995B6920009847002854
:1034500013D0A368002B0BD099686268002908D0AC
:103460004C605A609C606360A160002A03D0936046
:103470003EBD2C60F5E76B60FAE76468E0E720008A
:10348000F6E7C0465004002037B5124D01902C6875
:10349000002C1CD0236801995B6920009847002804
:1034A00013D0A368002B0BD099686268002908D05C
:1034B0004C605A609C606360A160002A03D09360F6
:1034C0003EBD2C60F5E76B60FAE76468E0E720003A
:1034D000F6E7C0464804002037B50D0083692D0A81
:1034E0000191CCB2EDB2002B0FD10F239C43B02C35
:1034F00026D1792D18D1254B1C68002C0AD02368C1
:103500002000DB6898476468F7E70198984700282F
:10351000EBD037BD1E4B1C68002CFAD0236820006E
:10352000DB6898476468F7E77B2D23D1194B1C684B
:10353000002CEED023682000DB6898476468F7E72A
:10354000B02C09D8902C03D0A02C0FD0802CE0D127
:103550000198FFF7D1FEDCE7D02C0FD0E02C11D082
:10356000C02CD6D10198FFF73FFFD2E70198FFF7B3
:10357000EBFECEE70198FFF70FFFCAE70198FFF7D0
:103580005BFFC6E70198FFF77FFFC2E760040020FA
:10359000500400207004002010B5FFF791FD014B8E
:1035A000186010BD8C04002070477047054B1868E8
:1035B000002805D1044B5B68002B01D0103B18009C
:1035C0007047C04600050020A40200200D4B10B536
:1035D00003600D4B040083600C4B03610C4BC36113
:1035E000FFF7E4FFA04202D100220A4B1A6020003C
:1035F000094B10302361FEF7E5FE2000FFF704FDC4
:10360000200010BD6CD10000B4D10000D0D100006A
:10361000E8D100000005002054D1000013B50400DB
:103620000830019100F0C5FA206A002804D0036830
:10363000019A1B682100984713BD37B50400083074
:103640000091019200F0D2FA206A002805D00368A8
:10365000009A5D682100019BA84737BD13B504009F
:103660000830019100F0DFFA206A002804D00368D6
:10367000019A9B682100984713BD13B5040001AB64
:1036800019800830019900F0EBFA206A002804D074
:103690000368019ADB682100984713BD006910B5E3
:1036A000002802D003681B6A984710BD406910B516
:1036B000002802D003681B69984710BD08B4024B6C
:1036C0009C46083808BC6047AD360000836970B579
:1036D00004000D001600002B03D0994201D0FFF723
:1036E00017FCE068A561002808D06369B34205D1E2
:1036F0002200036808329B69290098472069002846
:1037000005D02200036808329B6929009847606948
:1037100000280ED086420CD0E169002903D003684E
:103720002200DB68984760692200036829009B68D3
:1037300098476068002808D0030008339E4204D0F0
:10374000036822009B6B2900984770BD836970B5A0
:1037500004000D001600002B03D0994201D0FFF7A2
:10376000D7FB0023E068A361984208D06369B342A5
:1037700005D1220003680832DB69290098472069D7
:10378000002805D0220003680832DB692900984729
:10379000606900280ED086420CD003682900DB68DF
:1037A00022009847E169002904D06069220003687B
:1037B0009B6898476068002808D0030008339E4241
:1037C00004D003682200DB6B2900984770BD0369B1
:1037D00070B504000D00934210D14069A16100282A
:1037E00003D0036822009B6898476068002804D0D3
:1037F00003689B6B22002900984770BDC369002BAA
:10380000FBD14069E1610028F7D003689B68F1E7CC
:1038100008B4024B9C46083808BC6047CF3700000C
:10382000036970B504000D00934211D10023836138
:103830004069984203D003682200DB6898476068BB
:10384000002804D0220029000368DB6B984770BD74
:10385000C169A942FBD10023C36140699842F6D0F7
:1038600003682200DB68F1E708B4024B9C46083885
:1038700008BC6047213800004268002A02D00023BB
:103880001361436070474268002A02D000235361ED
:10389000436070470200406810B5002802D00368FA
:1038A0009C69A04710BD0200406810B5002802D0F6
:1038B0000368DC69A04710BD4368181E03D09869EF
:1038C000002800D1D8697047036910B5002B01D0DA
:1038D000FFF71EFB016110BD70B504000D006368A9
:1038E000002B05D128002100FFF7EEFF656070BDB9
:1038F0001C00F4E7436910B5002B01D0FFF708FB6B
:10390000416110BD70B504000D006368002B05D146
:1039100028002100FFF7EEFF656070BD08331C0032
:10392000F3E770B505690400002D0CD04668002E41
:1039300009D02800FFF7A0FF2000FFF79DFF31000E
:103940002800FFF7C9FF6569002D0DD0E668002E3D
:103950000AD02800FFF797FF20000830FFF793FFF9
:1039600031002800FFF7CEFF2069002801D0FFF7C3
:1039700083FF6069002801D0FFF785FF6368002B93
:1039800002D1E368002B01D0FFF7C2FA70BD10B579
:1039900004004068002806D0FFF7F9FF6068FFF7D1
:1039A000C0FF0023636010BD10B50400034B083353
:1039B0000360FFF7ECFF200010BDC04690D200006E
:1039C00010B504004068002807D00830FFF7F8FF62
:1039D0006068FFF7A6FF0023636010BD10B5040008
:1039E000034B08330360FFF7EBFF200010BDC04618
:1039F00010D2000010B50400FFF7F0FF20000821EE
:103A000002F0E9FE200010BD094B10B51A000400B9
:103A10000832503302608360FFF783FF20000830D4
:103A2000FFF7DCFF2000FFF7BFFF200010BDC046FE
:103A30002CD2000008B4024B9C46083808BC6047F2
:103A4000093A000010B50400FFF7DEFF2000202136
:103A500002F0C1FE200010BD08B4024B9C4608389D
:103A600008BC6047453A0000836970B50400002B2C
:103A700003D1C369002B02D170BD013319D0E369B2
:103A8000013316D00B25A069002802D1E369002B71
:103A9000F2D0013DEDB2002DEED0002802D0036837
:103AA000DB689847E0690028EDD00368DB68984739
:103AB000E9E7FFF72DFA406810B5002801D0FFF7BD
:103AC000D3FF10BD030010B50548002B06D00548F4
:103AD0005A1C03D01A6818009268904710BDC0465F
:103AE000F8D10000FFD1000010B5FFF7E5FEFFF7A9
:103AF000E9FF10BD07B500690191002802D00368F5
:103B00009B68984707BD07B50191FFF7F3FF07BD15
:103B100007B50191FFF7EEFF07BD07B500690091FA
:103B20000192002802D00368DB68984707BD07B5FB
:103B3000FFF7F3FF07BD07B5FFF7EFFF07BD07B5B9
:103B400000690191002802D003681B69984707BDEE
:103B500007B50191FFF7F3FF07BD07B50191FFF727
:103B6000EEFF07BD07B5006901AB1980002803D03F
:103B7000036801995B69984707BD07B501AB1980D8
:103B80000199FFF7EFFF07BD07B501AB1980019958
:103B9000FFF7E8FF07BD13B50400C06801910028D6
:103BA00001D0FFF7F8FF236801995B6A200098476E
:103BB00013BD13B5436804000191002B05D0FFF736
:103BC0007AFF01996068FFF7E6FF13BD13B50400A3
:103BD000C06800910192002801D0FFF7F7FF236829
:103BE00000999B6A019A2000984713BD13B543685A
:103BF000040000910192002B06D0FFF75CFF0099B2
:103C0000019A6068FFF7E2FF13BD13B50400C068B6
:103C10000191002801D0FFF7F8FF23680199DB6AC2
:103C20002000984713BD13B5436804000191002B91
:103C300005D0FFF740FF01996068FFF7E6FF13BD6D
:103C400013B50400C06801AB1980002802D00199A7
:103C5000FFF7F6FF236801991B6B2000984713BDFF
:103C600007B5406801AB1980002802D00199FFF721
:103C7000E7FF07BD0300002280331A800123823052
:103C80000370704700238230037070470200803257
:103C90001388C15401331380704770B504001500B8
:103CA00080342388C01804F08BFD228852192280AA
:103CB00070BD802380300288591AD00FCB179142F3
:103CC0005841C0B2704782300078704770478030EA
:103CD000008870477FB58424161C3207120F5443A6
:103CE0000B0A08340419DBB2050001912000F02B07
:103CF00012D1FFF7BFFF03212000FFF7DAFF0028F2
:103D000012D12800019B8C30042203A9039304F0F4
:103D100057FDAE71042304E0FFF7D5FF002398425E
:103D2000E9D1180004B070BD6B460322591D200074
:103D3000FFF7B3FF0023F4E7F0B585B06B460D0A3B
:103D4000EDB20191060001AF1A70F72D06D0D3B283
:103D5000C37005230570180005B0F0BD6B468424C0
:103D60001B781B071B0F5C43083404192000FFF766
:103D7000AAFF00239842EED001212000FFF799FF0F
:103D800000280DD130007D703B688C30042203A9DF
:103D9000039304F015FD6B461B78B3710423DAE737
:103DA00029002000FFF772FF2000FFF76BFF6B4632
:103DB0001B78B3710223CEE70B00F0B5DAB20D0A1F
:103DC0000E0C87B001910400EDB2F6B2090E13118A
:103DD00002D0002007B0F0BD0F273A40023A180089
:103DE0000D2AF7D8100002F0FBFC070710161C4A3A
:103DF0006B6B6B6B6B6B6B740F22E378257093436B
:103E00006670A170E3700520E4E7002201992000AC
:103E1000FFF760FFDEE7002201992000FFF78CFF2B
:103E2000D8E72500019A0835130ADBB20292002672
:103E30002800F02B12D1FFF71DFF02212800FFF709
:103E400038FF00280FD120000422029B8C300393FE
:103E500003A904F0B5FCA6710420BBE7FFF733FF0C
:103E60000028EAD1B5E70222092169442800FFF7BA
:103E700014FF2800FFF706FFA6710220AAE725001D
:103E8000019A0835130ADBB2049200262800F02BB1
:103E90000ED1FFF7EFFE03212800FFF70AFF0028ED
:103EA0000BD12000049B8C300593042205A9D0E798
:103EB000FFF709FF0028EED18BE703221121D4E799
:103EC0000F22E378257093436670A170E3700120A0
:103ED00080E762792571BA43627103207AE773B58E
:103EE000060000248C3633780500A3421DD004223E
:103EF0003100684604F064FC3470A879843400070B
:103F0000000F604308302818FFF7DDFE002807D0B7
:103F1000A8790007000F604308302818FFF7AAFEB1
:103F200000992800FFF748FF0400200076BD00003C
:103F3000F0B5040085B01E000AAB1B781030019369
:103F40000BAB1B78170002930CAB1B780D0003938F
:103F500000F072F82000243000F06EF822000023F8
:103F60004032A363E363137063729D4205D10A4B31
:103F70000A4A22210A4804F099FB6B461B7920006B
:103F800063716B461B7A2560E3716B461B7B27715F
:103F9000A671237205B0F0BDBCD2000029D3000089
:103FA000CDD200001FB5094B094A0A491A60002208
:103FB0005A711A7101230293019309330093093254
:103FC000023B0548FFF7B4FF05B000BD48050020DF
:103FD00000093D00E408002004050020094B186892
:103FE000002809D1EFF310820749002A08D172B6E0
:103FF000BFF35F8F01320A701A6801321A6070478E
:104000000870F9E75405002050050020084B1A6895
:10401000002A0CD01A68013A1A601B68002B06D1DE
:10402000044B1B78002B02D0BFF35F8F62B6704742
:104030005405002050050020FF23002110B5040086
:104040000370FC3B41708170C170017143710C229F
:10405000083004F0D1FB200010BD000001220B004D
:1040600010B5134008D00D4B1A70042343708368B9
:10407000002B00D0984710BD0222114204D00749FE
:104080000A704370C368F3E704231942F3D0034A6C
:104090001370033343700369EAE7C0464E4800419A
:1040A00010B5FFF79BFF0C4B1B8C1B071B0F0B2B3B
:1040B0000FD80A4A9900885800280AD00F240849C6
:1040C0000A78A24313430B70064B1978C9B2FFF765
:1040D000C5FFFFF79BFF10BD0048004158050020B9
:1040E0003F4800414E480041002070470020704783
:1040F00000207047F0B50A250B789DB002330B7095
:1041000002ABED185C4F03AC01905A22002128004D
:1041100004F072FB2781678381277F00E7830327F1
:10412000564B802623800123BC46EB777600802502
:10413000A682664602AF05376D00FE77E584072646
:104140004125092104AFFE77258502AE133D8F1965
:10415000AD1906262E702F252420022202AEAD199D
:1041600028700EAD2A703125AD192B703225AD198E
:104170002B70434DF8770F9510AD2A70414D812774
:10418000E5860425FF352587658743257F00AD1922
:10419000E270237163716373A3736174A074E37439
:1041A000E1822376A787297013AD287065462130F8
:1041B0008019057046208019027047200425801957
:1041C000057014A803704920801903704A202E4DF1
:1041D0008019037015A805804F20801940265525A9
:1041E000027016A8068002AF0520ED195627287028
:1041F00002AD7F1925253D70572702AD7F193B7011
:1042000018AF3B7059277F193B705A277F193970B7
:104210005231491908705D2149190A705C325219EE
:10422000168063222521521910701BAA1170652275
:1042300052191370662252191370624666335B1965
:104240001A704E22019B52191B792100A370A37290
:104250000133DBB263762377019B5B791370802295
:1042600001335242134319AA13700848642201F023
:104270002BFA1DB0F0BDC04609040000080B000079
:104280000624020209240000090500002409002078
:1042900010B5042408002200024904F091FA20001D
:1042A00010BDC0467DD30000134BF0B5FC335C68F5
:1042B0003F23060085B001341C4001930E4DFC35B0
:1042C000AB68A34216D00D4F7179380001F042F867
:1042D0007179042303AA380001F0D0F8032809DD1E
:1042E0006B68054A03999B009950019B6C600134EF
:1042F0001C40E3E705B0F0BDA00500202409002024
:1043000073B5194C06002500FC356B68AA689B1A2A
:104310009B061BD0AA6892001219137850789178E6
:10432000D278FC346668A568AE4204D03F26A56802
:1043300001353540A560FF24204023402140000284
:104340000904184312060843104376BD4179074813
:1043500001F000F8002803D03000FFF7A5FFD9E7EF
:10436000020001000300DCE7A00500202409002072
:1043700010B5417902480131C9B201F001F810BD10
:104380002409002010B50C00407913000130C1B29F
:104390002200034801F0ECF8002800DC002010BDEA
:1043A000240900200A0030B50B000C0085B00191F3
:1043B0000D1C120C03A98A701B0E240A04220D7016
:1043C0004C70CB70FFF7DEFF05B030BD0B4B10B566
:1043D000C3800300103383600023C360084B0400D4
:1043E00008330360022303618033436100F046FB1E
:1043F000210000F017FB200010BDC04602020000A3
:1044000084D3000010B50248FFF7E0FF10BDC0469E
:104410008805002010B5024801F005FD10BDC0461A
:10442000A806002013B51249124800F0C0F812493E
:10443000124800F0BCF81249124800F0B8F81249CE
:10444000124800F0B4F8124C1249200000F0AFF806
:104450001149124800F0ABF8002301930133009397
:104460000722053321000E4801F04CFC13BDC04665
:1044700000080042E4080020000C0042E808002088
:1044800000100042EC08002000140042F008002058
:10449000F408002000180042001C0042F808002028
:1044A000A8060020F7B506000D000C008B1801933C
:1044B000019B671B9C4207D0336821781B68300042
:1044C000984701340028F3D13800FEBD70B50400D0
:1044D00008000D0005F05AFA2368020029005B6805
:1044E0002000984770BD10B50B1E02D0FFF7EEFFFD
:1044F0000300180010BD10B503681B68984710BD75
:1045000010B50249FFF7E2FF10BDC04638D50000E4
:10451000F0B58BB06B461500002205330600DA7744
:104520000800012D00D80A2509AC290002F0E8F99D
:10453000CAB2130037330700DBB2092902D81300CF
:104540003033DBB2013C2370002FEED1210030006C
:10455000FFF7C9FF0BB0F0BDF8B506000C00151E43
:1045600004D10368C9B21B689847F8BD0A2A0CD168
:1045700000290BDA2D21FFF7BEFF614207002A0058
:104580003000FFF7C5FF3818EFE7D2B22100300046
:10459000FFF7BEFFE9E770B50400FFF7DDFF050098
:1045A0002000FFF7ADFF401970BD1000704701609B
:1045B00070479446F0B59E1E721E9641624605688D
:1045C00092072F6836063A4332432A60072505AC26
:1045D00024780068A4012940214342680024022B6A
:1045E00000D05C03114321434160F0BD30B5C025CC
:1045F0000368AD031C6812052A402243C024090445
:10460000A40221401143196003685A6814435C6096
:1046100030BD0123026811680B43136003681A68F8
:10462000D207FCD4DA69D207F9D4704702230268B2
:1046300011680B4313600268D3699B07FCD4704771
:1046400003681A7ED20702D41A7E9207FCD57047FF
:10465000002203685A8370470368187E4007C00F22
:1046600070470368187EC0097047802302685B4268
:10467000117E0B43137670470368588B8007C00F79
:10468000704702230268518B0B43538370470368C2
:10469000187EC007C00F70470368188DC0B27047FE
:1046A00003681A7ED207FCD589B2012019857047AC
:1046B000012203689A757047012203681A757047D2
:1046C0000368104A934213D00F4A934212D00F4A04
:1046D000934211D00E4A934210D00E4A93420FD00B
:1046E00001200D4A4042934201D1063040B270474A
:1046F0000020FBE70120F9E70220F7E70320F5E7B8
:104700000420F3E700080042000C004200100042C1
:104710000014004200180042001C0042F8B5FFF7E8
:10472000CFFF00282CDBC3001C48FF22C018052344
:104730000479C35603201840C0008240C021D243F0
:104740008140002B1DDB1F2501201D40C026A840F5
:10475000134D7600A851C0269B089B005B19B6003C
:104760009F593A401143995128603F2323408024A8
:10477000E4011C430B4B5C805A7852B2002AFBDBED
:10478000F8BD0F200340083B07489B089B001B18FF
:10479000D86902401143D961E7E7C0463CD5000023
:1047A00000E100E0000C004000ED00E0F8B504007E
:1047B0000F0016001D00FFF7B1FF2000FFF729FFD3
:1047C0001C21BB000B4071072268090C0B431360CE
:1047D000842322689375012F1AD11021012E00D055
:1047E00008390C4B69431868C00002F003F807222F
:1047F000216802408B895203DB04DB0C13438B815D
:10480000226803049089DB0C400B4003184390811D
:10481000F8BDC046840000203F20704713B56B46AA
:104820000268D9710733546819000122A04716BDE8
:1048300010B50221006900F08DFD034B1B680133A8
:104840005A1E9341181810BD5800002010B50321BE
:10485000006900F095FD10BD10B50321006900F05E
:104860005DFD10BD10B5054C23685A1C04D10368CA
:104870005B69984703002060180010BD58000020B5
:10488000074B0200186810B5411C03D001225242A8
:104890001A6010BD0221106900F05CFEF9E7C04605
:1048A0005800002010B51300094A0400D079C0B2A6
:1048B000002805D1627E002A02D00123636006E051
:1048C0000A002069032100F053FE0028F5D010BD36
:1048D0000C00002010B50378422202330370024915
:1048E000024800F0F1FE10BD140000202409002051
:1048F00010B50178020043780020A12908D1212BAE
:1049000005D107221649174800F0DEFE012010BD30
:104910002129FCD1202B13D107221149114800F085
:1049200073FD96220E4BD200196891420ED10124DC
:10493000D87904400AD1FA2001F0B4FE0020E6E75D
:10494000222B06D19278064BDA71EAE701F0B0FE2D
:10495000F4E7232BDBD15288034B1A60D7E7C0461C
:104960000C000020240900200800002001234376C9
:1049700070470000FA220021054B92009A60054A18
:10498000596008321A60044A19761A617047C046A5
:10499000FC0800206CD500002409002070B50E0032
:1049A00000254468002C0BD0236831005B68200090
:1049B0009847002802DB2D18E468F3E701256D42D3
:1049C000280070BD70B50D004468002C08D0236825
:1049D00029009B6820009847002802D1E468F4E78A
:1049E000200070BD70B50D004468002C08D023680D
:1049F00029001B6820009847002802D1E468F4E7EA
:104A0000200070BD70B50D004468002C08D02368EC
:104A10002900DB6820009847002802D1E468F4E709
:104A2000200070BDF0B58C79457803002A1900206C
:104A3000072A1FDC5A68824216D159601A78C87951
:104A40000A7112184D711A7000220B4DD0B28442B7
:104A50000FD98F6858789600F75986000130775142
:104A600001325870F2E70200D0680028FBD1D16013
:104A7000E4E70120F0BDC0465C0000200121054AAA
:104A800010B5136804480B4003D1044C4360048004
:104A9000116010BD180900201C090020020400004C
:104AA0007047704770B50F26CB1D013902003240A8
:104AB000D5B22C0000093034092A00DD07341C70FF
:104AC000013B8B42F2D170BDA02110B5040049001A
:104AD00001F081FE200010BDF8B5032908D1304B4C
:104AE0008000C058002802D003689B689847F8BD32
:104AF000822919D1C3B22B4D5A01AA1891692A4CA7
:104B000080010C40C0218905214391612749083368
:104B100040187021506128685B011A5C8A431100BB
:104B200030220A431A54E2E70029E0D1C026C1B27C
:104B30001C4C4B01E3189A681B4DB6052A403243C2
:104B40009A601B4A800182185A600A00072724686D
:104B500008325201115DB9430F000121394311554B
:104B60009F6912493D4040182E439E615861702054
:104B7000115D8143080010210143115599680D48CA
:104B8000A218084080214903014399609968890B64
:104B900089039960402311790B431371A7E7C0463D
:104BA00028090020DC0D0020FFFFFF8F50090020A6
:104BB000100B0020FF3F00F0EFF310830360012390
:104BC000436072B670470368002B02D162B6BFF330
:104BD0006F8F7047F7B50500FC35EB690600002BB9
:104BE00018D196277F00C45D6846FFF7E5FF019B5B
:104BF000E4B2013B02D3F45DE4B2FAE76846019304
:104C0000FFF7E1FF002C01D10020FEBDE86AAB6A8E
:104C1000C01AFAE76846FFF7CFFF9E220024019BE7
:104C20005200013B02D3B45CE4B2FAE76846019358
:104C3000FFF7C9FF002CE7D0E86BAB6BE8E700009B
:104C400030B54468FC3043698069DBB25A01A21870
:104C50009168094D800429400009014391609168E1
:104C60000833890B8903916022685B01D3184022C5
:104C700019790A431A7130BDFF3F00F0F7B50500FE
:104C8000FF21FC356A6943680A401B6808325201FB
:104C90009A18D3790400DB0754D50126D6716B69C5
:104CA00062680B405B01D318286A9A689204920CE0
:104CB000002822D1EA62EA6A002A40D06A6B2E629A
:104CC00068465A60FFF778FF9E273E21019B7F00D0
:104CD000013BFF315A1C2ED096225200A654E25DB1
:104CE000581ED2B2002A05D0665468460193FFF7D9
:104CF0006AFFF7BD62540300ECE7EA63EA6B002A3F
:104D00001DD000222A626A6A68465A60FFF754FF83
:104D100096273E21019B7F00013BFF315A1C0AD0A0
:104D20009E225200A654E25D581ED2B2002ADBD168
:104D300062540300F2E768460193FFF744FF200046
:104D4000FFF77EFF63681A686B69DBB208335B01AB
:104D5000D3187F22DA71CCE7F7B5070068463C002C
:104D6000FFF72AFF0026FF22019BFC34013B0DD3F5
:104D7000E0682169884204DBE6682069961B3618E2
:104D8000F4E72669E168761A013EEFE76846019389
:104D9000FFF719FFE3696846002B52D1FFF70CFFBC
:104DA0009621019B4900013B5A1C0CD07D5C5A1E88
:104DB000EDB2002D05D168460193FFF704FF2800EE
:104DC000FEBD1300F0E7684601930025FFF7FBFEE8
:104DD000FF21A36AB54214D0E26A9A4211D95A1C43
:104DE000A262626AD3181878E36822690133C0B2FC
:104DF0000B40934203D0E268BA181072E3600135A9
:104E0000E7E7E26A9A42DAD10023A3620133E36161
:104E100068469624FFF7D0FE64003E220021019BE5
:104E2000FF32013B581CC6D03955B85C5E1E0028C5
:104E300005D0B95438000193FFF702FFEDE73300C6
:104E4000F0E7FFF7B9FE9E21019B4900013B5A1C88
:104E500006D07D5C5A1EEDB2002DACD01300F6E7F3
:104E6000684601930025FFF7AEFEFF21A36BB54214
:104E700002D0E26B9A421DD8E26B9A429FD1002386
:104E80006846A363E3619E24FFF796FE64003E221A
:104E90000021019BFF32013B581C00D18BE73955A3
:104EA000B85C5E1E002817D0B95438000193FFF794
:104EB000C7FEECE75A1CA263626BD3181878E3684C
:104EC00022690133C0B20B40934203D0E268BA18A2
:104ED0001072E3600135C9E73300DDE710B5040067
:104EE000FFF73AFF2300FC331969DA68914203D0D7
:104EF0001B69E418207A10BD01204042FBE710B581
:104F00000400FC34FFF728FFE0682369C01A01D5CC
:104F10000130FF3010BDF0B585B001920091050061
:104F2000FFF71AFF02A8FFF747FE01200024FF2623
:104F3000039B40425A1E531C1FD02B00FC33019987
:104F40008C4218D2D9681F69C91B01D50131FF31C4
:104F5000002910D01969DF688C460100BC4506D0D5
:104F600019691F69691801373740097A1F61009F65
:104F700039550134E3E7013ADDE702A80392FFF770
:104F800022FE200005B0F0BD37B56B46DC1D0023C6
:104F90000D0020002370FFF79DFC2B681818286077
:104FA000FFF76CFD2100FFF7F9FC2B68181828604B
:104FB00020783EBD02220B0010B593430C00012B5C
:104FC0000BD10D4B08341B6864011C198023217917
:104FD0005B420B432371E27110BDFFF74FFD2100CF
:104FE000FFF710FD0028F7D0034B08341B6864015D
:104FF0001C197F23E371EFE7DC0D002070B500245E
:10500000374B012105000B201C7001F075FA0121BE
:105010000B2001F0A1FA334B01210C201C7001F090
:105020006BFA01210C2001F097FA20232E4A0F2061
:10503000D1690B43D36101222C490B7813430B70C8
:105040002B4B19788143197006211C782143197064
:1050500028490C7822430A701A7802401A7060229C
:1050600019780A431A70244B244A5A805A78D20974
:10507000FCD1234801F002F8224C7F26200001F0E9
:105080005BFB200001F070FB0C2108232068C27834
:105090008A4313430322C3702068C3789343013AC1
:1050A0001343C370206803783340037004232068DF
:1050B000067833430370206803898B430381C12042
:1050C000114980000B581B021B0A0B5080230B60F8
:1050D000236819780A431A7001232B7070BDC046EB
:1050E00045090020440900200004004058440041C4
:1050F0003C44004159440041000C0040064000007F
:10510000395B0000DC0D002000E100E000780028A1
:1051100010D00121084B1B681A898A431A81082282
:10512000198B0A431A830422198B0A431A8300221B
:10513000024B1A607047C046DC0D0020D40D0020E1
:1051400010B50F4A93699B0B9B039361136802226E
:10515000FF331A729879823A02439A711A7A920747
:10516000FCD57F24074A2140937A0800A343190005
:10517000802301439172917A5B420B43937210BD7D
:10518000DC0D00200050004110B50B790C00002B05
:105190000CD10800FFF7ACFB002801D0012010BDA6
:1051A000094A93699B0B9B039361F7E7FFF766FC42
:1051B0002100FFF717FC0028F0D1034A93699B0BED
:1051C0009B039361EBE7C046DC0D0020F8B50D00B2
:1051D000832A19D1CBB2434C5A01A2189169424893
:1051E000AD010840C0218905014391613F49206814
:1051F0006D187021083355615B011A5C8A431100F8
:1052000040220A431A54F8BD022A65D1384B8A005D
:10521000D058002802D003689B699847A02040001E
:1052200000F0BAFF80270600324B7F0003602D4B51
:10523000002143603A00083003F0DEFA3400962281
:105240000023FC345200E360A36223616561E361E3
:10525000A7612362E362B3541032A363E363B354E0
:105260003E223800FF32B35403F084FA6062380003
:1052700003F080FA2B006063FF201A4903405A01B3
:105280008A189168184F08330F40C02189053943A7
:1052900007279160134A5B011168AD005A5CBA435D
:1052A000170003223A435A54616973680140490167
:1052B0005918636A4B60736862691B680240520147
:1052C0009B1801221B18997A30000A439A72FFF743
:1052D000B7FC074BEE5096E711002800FFF7FCFBE8
:1052E00091E7C046DC0D0020FFFFFF8F5009002032
:1052F000280900209CD5000070B505000124064B4C
:10530000A200D258002A06D0210028000134FFF75D
:105310005DFF0A2CF3D170BD5C0000200B4BCAB2BC
:105320000B488901C9185301C3185961996908329A
:10533000890B89039961036852019A180223D3717A
:105340005179823B0B4353717047C046500900208E
:10535000DC0D0020084B8A00D05810B5002803D07F
:105360000368DB68984710BDC9B2044B490159185E
:1053700088688004800CF6E728090020DC0D0020F6
:1053800010B50C00FFF7E6FF00280CD0064BE4B286
:105390001B68083464011C19802362795B42134343
:1053A00063710223E37110BDDC0D002070B5CBB238
:1053B000124A13485C0189018918021951609168E9
:1053C000104D08330D40802189022943402591600A
:1053D0009168890B8903916001685A018A181679CE
:1053E0003543157195796D06FCD55B01C918CB79EC
:1053F000DB07FCD500198068C0B270BD100B00201F
:10540000DC0D0020FF3F00F070B5140040220B4B74
:105410000D001B68FF3359790A435A710021FFF7C9
:10542000C5FFA04200D9200000230549A34203D0B4
:10543000CA5CEA540133F9E770BDC046DC0D0020B8
:10544000100B002010B5C9B20B48490142189368EF
:105450009B049B0C3F2B0BD99468403B9B04A40BF3
:105460009B0CA4032343936041188868C0B210BD0D
:1054700093689B0B9B03F6E7DC0D0020F0B51C0046
:105480002F4B85B01B6806000D000192002B54D0F5
:105490002C4F3978C9B2002902D10C2001F05CF8F8
:1054A00064233B70284BAA00D058002808D003681A
:1054B00022005B68019998470400200005B0F0BD08
:1054C00029003000FFF746FF844204D9290030004C
:1054D000FFF740FF040029003000FFF7B3FF012170
:1054E000EBB21A4F03935B010293029A3B68019857
:1054F0009B18FF335A7A0A435A72154BA901C918EF
:10550000220003F05DF9002CD7D029003000FFF70E
:1055100021FF0028D1D14021039B3A6808335B0169
:10552000D3181879014319710121D971029BD3183D
:10553000FF339A7A0A439A72BFE701246442BCE7B8
:10554000D40D00204409002028090020DC0D002093
:10555000100B002013B56B46DC1D22000123FFF762
:105560008DFF012801D1207816BD01204042FBE7C4
:10557000F0B51E003A4B85B01B680F000192002B5E
:105580003FD08023DB019E423BD8364C2178C9B204
:10559000002902D10B2000F0DFFF642300252370D7
:1055A000314BBA01D3180293002E2CD02F4B1B681D
:1055B0000393FF233B401C0000930834039B6401CA
:1055C0001C19A379DB0921D0294B2A49186801F05D
:1055D00011F9294B1721584301F00CF9274BE279B7
:1055E000920713D4DA5D002A01D10138F7D20122E3
:1055F000DA55009B5A011D4B9B189A69920B920336
:105600009A6101256D42280005B0F0BD00221B4BB8
:105610003400DA55402E00D9402422000199029826
:1056200003F0CEF8009BA1045A01104B890C9B1883
:10563000029A2D195A619A69361B920B92030A43FA
:105640009A61009B039A08335B01D3180222DA7136
:105650005979823A0A435A71019B1B190193A3E7B6
:10566000D40D00204509002050090020DC0D002049
:105670008400002040420F00701101004709002003
:1056800070B50D001C000D4BAE01F6181100300076
:10569000220003F095F8EDB209496D014D196E61D4
:1056A000AB69084A20001340AB61AB69A2049B0BB5
:1056B000920C9B031343AB6170BDC04650090020A0
:1056C000DC0D0020FF3F00F0F7B5104B01901B7878
:1056D0000F001500002B0CD10D4B16001C78002C70
:1056E00009D00C4E0C4834882018641903F068F86F
:1056F00034802800FEBD002EFBD03A193300002173
:105700000198FFF7BDFF2418361AF4E7D00C0020EB
:10571000D10D0020D20D0020D10C0020F8B50020C2
:1057200000AF0E001500012A27D9D31D6A46DB08F9
:10573000DB00D31A9D46080004F028F96C460323C9
:10574000022200210130400020706370AA420DD275
:10575000307800280AD0531CDBB20136A0549D4299
:1057600003D00232E154D2B2F0E72A00210004480B
:10577000FFF7AAFF431E9841C0B2BD46F8BDC04620
:1057800024090020F0B50024012685B0184B0F0035
:1057900069461E7005000094FFF7F6FB154B01A942
:1057A0000B806A3BFF3BCB716E3B0B72009B8C7195
:1057B00009334B800E4B4E7108711C703A00092F53
:1057C0000FD00D4F09223E700C4E280000943480FB
:1057D000FFF77AFF69462800FFF7D6FB32880849B1
:1057E0003C702800FFF770FF012005B0F0BDC046F7
:1057F000D00C002009020000D10D0020D20D0020A5
:10580000D10C0020F0B5CF7893B005000E00022F28
:1058100009D1C9882D48FFF7B5FF441EA041C4B285
:10582000200013B0F0BDFFF729F93100FFF7CAF8E7
:10583000002803D0C417241AE40FF1E7012F0FD179
:10584000F288082A0AD02249112A13D8D2B2002A93
:1058500010D02800FFF738FF0124E1E71D49F5E7E4
:105860000400032FDCD1B378002B05D1F2881A494C
:10587000032AEBD90A78ECE7022B06D1B279174953
:105880002800FFF74BFF0400CAE7012B02D1B279D1
:105890001349F5E7032BC3D1124B01A91868FFF791
:1058A00001F9114B03A91868FFF7FCF80F4B05A984
:1058B0001868FFF7F7F80E4B07A91868FFF7F2F81A
:1058C0006B460533DC77B27901A9D9E724090020BA
:1058D000E0D50000F2D50000CED50000BCD5000018
:1058E000D2D500000CA0800040A0800044A0800021
:1058F00048A0800037B5040048780D000B2810D868
:1059000000F06EFF061B0F2B0F40456D494C66697A
:10591000097801AA002906D1022311802000FFF78F
:10592000AFFE01203EBD002313802E4B1B78012BC0
:1059300000D1137002230021F0E78A780023012AA6
:1059400003D101AA1380284BF0E7264A1370274A97
:1059500093699B0B9B039361E3E78D78012D06D13F
:105960000021214B01AA1D7011702B00D6E70120E8
:10597000002DD7D11B4B1D4A187093699B0B9B03BD
:105980009361CFE789782000FFF7DAFBC9E72000B1
:10599000FFF738FFC6E70123154ACCE70B78002054
:1059A000DB06BFD12000FFF7A7FC2A20AA78104B06
:1059B000FF301A6002230D4A11680C5C23434A240D
:1059C0000B54FF340B5D2938FF3803430B55D4E7E4
:1059D0000123084AAFE78A78064B1A60B7E7002030
:1059E000A0E7C046460900204E090020DC0D00203B
:1059F000D40D0020D80D0020474BF7B51C780600C9
:105A0000002C7CD1454D2B689B8B1B070ED52100AC
:105A10002000FFF761F82A6810231100FF31887A0F
:105A200003438B723E4B1C60082393832B689A8B35
:105A300052071FD504229A833A4A1378002B0AD0C2
:105A40001378013BDBB213701378002B03D10121D3
:105A50000B2000F081FD344A1378002B0AD0137814
:105A6000013BDBB213701378002B03D101210C2012
:105A700000F072FD2B68FF331A7AD2061ED5102271
:105A80001A72597930320A435A716023274930001B
:105A90000A781A4234D1FFF72DFF2B68FF33002814
:105AA00031D08022997952420A439A711A7A520669
:105AB00004D540221A72597A0A435A7201242700E7
:105AC0002B681B8CA343DBB20193019B23413B4218
:105AD00012D023002A6808335B01D318DA79D20781
:105AE00002D4DB799B0707D5114BA200D0580028C0
:105AF0000DD003681B6898470134082CE5D1F7BD29
:105B0000FFF742FBC9E720210A4A9171CEE7E1B2D3
:105B10003000FFF74FFAEFE7D10D0020DC0D002039
:105B2000D40D00204509002044090020100B00205E
:105B300028090020FF50004110B50248FFF75CFF24
:105B400010BDC04624090020014B024A1A6070476C
:105B5000DC0D0020005000410120704710B50368A3
:105B6000014A1B6A984710BD130400000300FC3370
:105B7000D9699A69914203D0DB69C018007D7047EA
:105B800001204042FBE710B504000069FEF741FD2B
:105B900022000023FC329361D36186229200A41874
:105BA0006360A36010BDF020014030394842484195
:105BB0007047F0231B011940802306209B00994267
:105BC0000AD00133FF330130994205D080230238D7
:105BD0005B00994200D0002070470F200140002058
:105BE000012903D00239481E8141481C704700003A
:105BF0008923F0B5182685B002919B000400C05C93
:105C0000330008214343324D1700EB18595600F07A
:105C1000E7FC304B0821E05C33004343EB18595656
:105C200000F0DEFC2C4BE25C0393022A09D1113315
:105C3000E05CFF2805D008214643AE19715600F0FC
:105C4000CFFC8A26B600A05DFF2819D0012100F004
:105C500053FC1822A35D21495A43AB56AD18DB0112
:105C600058188B21890060501D4901225B188C2136
:105C70008900635069688A408D21890062501A60EA
:105C80000122029B11002069FEF790FD39002000DF
:105C9000FFF78FFF390005002000FFF79EFF390056
:105CA00006002000FFF77FFF3300009029002069E5
:105CB0000122FEF77EFC0B4B2069E25C039BE15C5A
:105CC000FEF794FC2069FEF7B1FC05B0F0BDC046BC
:105CD000A0D3000025020000270200001844004164
:105CE0001444004126020000802210B50400520036
:105CF000002102F081FD23000022FC335A602000C5
:105D00009A6010BDF7B51D0008AB1B780400009326
:105D100009AB1B781600019300234360FA239B0014
:105D20008360114B0F00083303601430FFF7DCFF72
:105D300020001D30FF30FFF7D7FF89236A469B0004
:105D40002761E654094B1278E554094B2000E254D0
:105D50006A46084B1279E2548A22293BFF3B9200A3
:105D6000A3541032A354FEBD04D600002502000047
:105D700026020000270200000300FC3359689A68DD
:105D8000914204DB5A689868801AFF30704798681F
:105D90005B68C01A0138F9E710B51D30FF30FFF716
:105DA000EBFF10BD030070B5FC33D9699A6904009C
:105DB00091421AD0DA698218157DDA690132D2B2BD
:105DC000DA618A239B00E35CFF2B0CD020001430A7
:105DD000FFF7D2FF0A2806DD8C238D229B0092005C
:105DE000E358A2581A60280070BD01256D42E8E70B
:105DF0000300FC3358689B68C01A01D50130FF309E
:105E0000704710B5040020001D30FF30FFF7F0FF91
:105E10000028F8D12069FEF713FC10BD10B514302E
:105E2000FFF7E6FF10BD10B504000069FEF724FC83
:105E3000002805D02069FEF72FFC2069FEF721FC21
:105E40002069FEF709FC002820D02069FEF724FC19
:105E50002200FC329369D1690133DBB28B4203D05B
:105E600091696118087593618A239B00E35CFF2B9D
:105E70000CD020001430FFF77FFF092806DC8B23AD
:105E80008D229B009200E358A2581A602069FEF709
:105E9000FEFB00281AD020001D30FF30FFF7A8FFBE
:105EA000002822D086239B00E31899685A68914203
:105EB00018D08E219A684900A218515C9A68013264
:105EC000D2B29A60C9B22069FEF7EAFB2069FEF7F8
:105ED000C8FB002805D02069FEF7C7FB2069FEF744
:105EE000B7FB10BD01214942ECE72069FEF7E4FB56
:105EF000ECE7000070B5040000690D00FEF7C7FB79
:105F000000283ED1FF2686239B00E3185A68996833
:105F1000013232408A4223D1EFF31083DB070DD4E4
:105F20001E4B5B68DB05DB0DEDD0103B5BB2002B3D
:105F30000DDB9B08C0331A4A9B009B582069FEF773
:105F4000A6FB0028DFD02000FFF76DFFDBE70F2264
:105F50001340083B9B08134A9B009B181B68EDE706
:105F60005A68013216409A68964205D08E215A68C6
:105F70004900A21855545E602069FEF799FB012084
:105F800070BD20001D30FF30FFF732FF0028B9D16F
:105F900029002069FEF784FBF1E7C04600ED00E030
:105FA00000E100E01CED00E010B50024084B1B6888
:105FB000A34200D810BD074A0749A30010695958E9
:105FC000014203D01161054A9B5898470134EDE71F
:105FD000680F002000180040240F0020E00E002071
:105FE000054B10B51B6C002B00D098470123034ACA
:105FF000D1780B43D37010BDE00E00200018004094
:10600000FEE7FEE7034B10B51B68002B00D0984756
:1060100010BDC0466C0F002070B50F490F4CA14257
:1060200004D100F0DFF800F09FF8FEE70C4D0023EC
:106030008D42F6D0CA18E818A24205D3094B824215
:10604000EFD00949002204E0006804331060F1E752
:1060500004C38B42FCD3E4E7000000208802002048
:1060600010DA000088020020840F002010B500F034
:1060700064F8002801D100F055F810BD014B1860FC
:106080007047C0466C0F0020014B18687047C0462F
:10609000700F0020F7B51348012284461249134CB3
:1060A0008E68636805689B0E134001928868626879
:1060B000019F920E3A4067463F6893420ED1BD421F
:1060C0000CD186420AD35B19FA254868AD00861BBD
